{
  "contractName": "Project",
  "abi": [
    {
      "constant": true,
      "inputs": [],
      "name": "candidatesCount",
      "outputs": [
        {
          "name": "",
          "type": "uint256"
        }
      ],
      "payable": false,
      "stateMutability": "view",
      "type": "function"
    },
    {
      "constant": true,
      "inputs": [
        {
          "name": "",
          "type": "uint256"
        }
      ],
      "name": "PatientRecords",
      "outputs": [
        {
          "name": "name",
          "type": "string"
        },
        {
          "name": "age",
          "type": "uint256"
        },
        {
          "name": "weight",
          "type": "string"
        },
        {
          "name": "gender",
          "type": "string"
        },
        {
          "name": "symptoms",
          "type": "string"
        },
        {
          "name": "feedback",
          "type": "string"
        }
      ],
      "payable": false,
      "stateMutability": "view",
      "type": "function"
    },
    {
      "constant": true,
      "inputs": [],
      "name": "globalRid",
      "outputs": [
        {
          "name": "",
          "type": "uint256"
        }
      ],
      "payable": false,
      "stateMutability": "view",
      "type": "function"
    },
    {
      "constant": true,
      "inputs": [
        {
          "name": "",
          "type": "address"
        }
      ],
      "name": "registeredAddr",
      "outputs": [
        {
          "name": "",
          "type": "string"
        }
      ],
      "payable": false,
      "stateMutability": "view",
      "type": "function"
    },
    {
      "inputs": [],
      "payable": false,
      "stateMutability": "nonpayable",
      "type": "constructor"
    },
    {
      "constant": false,
      "inputs": [],
      "name": "registerAsPatient",
      "outputs": [],
      "payable": false,
      "stateMutability": "nonpayable",
      "type": "function"
    },
    {
      "constant": false,
      "inputs": [],
      "name": "registerAsDoctor",
      "outputs": [],
      "payable": false,
      "stateMutability": "nonpayable",
      "type": "function"
    },
    {
      "constant": false,
      "inputs": [],
      "name": "registerAsLab",
      "outputs": [],
      "payable": false,
      "stateMutability": "nonpayable",
      "type": "function"
    },
    {
      "constant": false,
      "inputs": [],
      "name": "registerAsInsurer",
      "outputs": [],
      "payable": false,
      "stateMutability": "nonpayable",
      "type": "function"
    },
    {
      "constant": false,
      "inputs": [
        {
          "name": "name",
          "type": "string"
        },
        {
          "name": "age",
          "type": "uint256"
        },
        {
          "name": "weight",
          "type": "string"
        },
        {
          "name": "gender",
          "type": "string"
        },
        {
          "name": "symptoms",
          "type": "string"
        }
      ],
      "name": "addRecord",
      "outputs": [
        {
          "name": "",
          "type": "uint256"
        }
      ],
      "payable": false,
      "stateMutability": "nonpayable",
      "type": "function"
    },
    {
      "constant": false,
      "inputs": [
        {
          "name": "rid",
          "type": "uint256"
        }
      ],
      "name": "sendRecordAndDepositFee",
      "outputs": [],
      "payable": true,
      "stateMutability": "payable",
      "type": "function"
    },
    {
      "constant": false,
      "inputs": [
        {
          "name": "rid",
          "type": "uint256"
        },
        {
          "name": "feedback",
          "type": "string"
        }
      ],
      "name": "sendFeedback",
      "outputs": [],
      "payable": false,
      "stateMutability": "nonpayable",
      "type": "function"
    },
    {
      "constant": false,
      "inputs": [
        {
          "name": "rid",
          "type": "uint256"
        }
      ],
      "name": "requestRecordAndDepositFee",
      "outputs": [],
      "payable": true,
      "stateMutability": "payable",
      "type": "function"
    },
    {
      "constant": false,
      "inputs": [
        {
          "name": "rid",
          "type": "uint256"
        }
      ],
      "name": "grantAccessToReport",
      "outputs": [],
      "payable": false,
      "stateMutability": "nonpayable",
      "type": "function"
    },
    {
      "constant": false,
      "inputs": [
        {
          "name": "rid",
          "type": "uint256"
        }
      ],
      "name": "claimInsurance",
      "outputs": [],
      "payable": false,
      "stateMutability": "nonpayable",
      "type": "function"
    },
    {
      "constant": false,
      "inputs": [
        {
          "name": "rid",
          "type": "uint256"
        }
      ],
      "name": "sendInsurance",
      "outputs": [
        {
          "name": "",
          "type": "string"
        }
      ],
      "payable": true,
      "stateMutability": "payable",
      "type": "function"
    },
    {
      "constant": false,
      "inputs": [
        {
          "name": "rid",
          "type": "uint256"
        }
      ],
      "name": "releaseMoneyToDoctor",
      "outputs": [],
      "payable": true,
      "stateMutability": "payable",
      "type": "function"
    },
    {
      "constant": false,
      "inputs": [
        {
          "name": "rid",
          "type": "uint256"
        }
      ],
      "name": "releaseLabMoneyToPatient",
      "outputs": [],
      "payable": true,
      "stateMutability": "payable",
      "type": "function"
    },
    {
      "constant": false,
      "inputs": [
        {
          "name": "rid",
          "type": "uint256"
        }
      ],
      "name": "releaseInsuranceMoneyToPatient",
      "outputs": [],
      "payable": true,
      "stateMutability": "payable",
      "type": "function"
    }
  ],
  "bytecode": "0x6080604052734d680c4c465be01d5c423ca7e9f3cd63da1115186000806101000a81548173ffffffffffffffffffffffffffffffffffffffff021916908373ffffffffffffffffffffffffffffffffffffffff16021790555073421c4ff3cda80c55bbb4bc49540e983a2e498abc600160006101000a81548173ffffffffffffffffffffffffffffffffffffffff021916908373ffffffffffffffffffffffffffffffffffffffff16021790555073ba618450b704c8f0c8a9d368cfe911d6121e7748600260006101000a81548173ffffffffffffffffffffffffffffffffffffffff021916908373ffffffffffffffffffffffffffffffffffffffff160217905550730b8bf3265338bb73f8d8f8864823f05aa7af6f29600360006101000a81548173ffffffffffffffffffffffffffffffffffffffff021916908373ffffffffffffffffffffffffffffffffffffffff1602179055507329fa1844a7604fdc2608293a034b9ac1e48775df600460006101000a81548173ffffffffffffffffffffffffffffffffffffffff021916908373ffffffffffffffffffffffffffffffffffffffff160217905550348015620001b957600080fd5b506040805190810160405280600681526020017f646f63746f72000000000000000000000000000000000000000000000000000081525060076000600160009054906101000a900473ffffffffffffffffffffffffffffffffffffffff1673ffffffffffffffffffffffffffffffffffffffff1673ffffffffffffffffffffffffffffffffffffffff16815260200190815260200160002090805190602001906200026692919062000473565b506040805190810160405280600381526020017f6c6162000000000000000000000000000000000000000000000000000000000081525060076000600260009054906101000a900473ffffffffffffffffffffffffffffffffffffffff1673ffffffffffffffffffffffffffffffffffffffff1673ffffffffffffffffffffffffffffffffffffffff16815260200190815260200160002090805190602001906200031392919062000473565b506040805190810160405280600781526020017f696e73757265720000000000000000000000000000000000000000000000000081525060076000600360009054906101000a900473ffffffffffffffffffffffffffffffffffffffff1673ffffffffffffffffffffffffffffffffffffffff1673ffffffffffffffffffffffffffffffffffffffff1681526020019081526020016000209080519060200190620003c092919062000473565b506040805190810160405280600581526020017f6f776e6572000000000000000000000000000000000000000000000000000000815250600760008060009054906101000a900473ffffffffffffffffffffffffffffffffffffffff1673ffffffffffffffffffffffffffffffffffffffff1673ffffffffffffffffffffffffffffffffffffffff16815260200190815260200160002090805190602001906200046c92919062000473565b5062000522565b828054600181600116156101000203166002900490600052602060002090601f016020900481019282601f10620004b657805160ff1916838001178555620004e7565b82800160010185558215620004e7579182015b82811115620004e6578251825591602001919060010190620004c9565b5b509050620004f69190620004fa565b5090565b6200051f91905b808211156200051b57600081600090555060010162000501565b5090565b90565b6129e980620005326000396000f3006080604052600436106100fc576000357c0100000000000000000000000000000000000000000000000000000000900463ffffffff1680630b37fae1146101015780632d35a8a2146101215780633d2c282b1461014c5780636b173b41146101bf5780636ba7fe7f1461041c5780636c8c568314610433578063782d13b31461045e5780637cccf1cf1461047557806384783685146105315780638a73c8df1461055e5780639537b4ca1461057e578063a99ad4ee1461059e578063a9c4a154146105b5578063be799cd1146105d5578063c13763eb1461072e578063d574cb1c146107c7578063e9e13203146107de578063f85920d8146107fe575b600080fd5b61011f6004803603810190808035906020019092919050505061082b565b005b34801561012d57600080fd5b50610136610a59565b6040518082815260200191505060405180910390f35b34801561015857600080fd5b506101bd60048036038101908080359060200190929190803590602001908201803590602001908080601f0160208091040260200160405190810160405280939291908181526020018383808284378201915050505050509192919290505050610a5f565b005b3480156101cb57600080fd5b506101ea60048036038101908080359060200190929190505050610d4a565b60405180806020018781526020018060200180602001806020018060200186810386528c818151815260200191508051906020019080838360005b83811015610240578082015181840152602081019050610225565b50505050905090810190601f16801561026d5780820380516001836020036101000a031916815260200191505b5086810385528a818151815260200191508051906020019080838360005b838110156102a657808201518184015260208101905061028b565b50505050905090810190601f1680156102d35780820380516001836020036101000a031916815260200191505b50868103845289818151815260200191508051906020019080838360005b8381101561030c5780820151818401526020810190506102f1565b50505050905090810190601f1680156103395780820380516001836020036101000a031916815260200191505b50868103835288818151815260200191508051906020019080838360005b83811015610372578082015181840152602081019050610357565b50505050905090810190601f16801561039f5780820380516001836020036101000a031916815260200191505b50868103825287818151815260200191508051906020019080838360005b838110156103d85780820151818401526020810190506103bd565b50505050905090810190601f1680156104055780820380516001836020036101000a031916815260200191505b509b50505050505050505050505060405180910390f35b34801561042857600080fd5b5061043161107e565b005b34801561043f57600080fd5b506104486110c1565b6040518082815260200191505060405180910390f35b34801561046a57600080fd5b506104736110c7565b005b34801561048157600080fd5b506104b6600480360381019080803573ffffffffffffffffffffffffffffffffffffffff16906020019092919050505061110a565b6040518080602001828103825283818151815260200191508051906020019080838360005b838110156104f65780820151818401526020810190506104db565b50505050905090810190601f1680156105235780820380516001836020036101000a031916815260200191505b509250505060405180910390f35b34801561053d57600080fd5b5061055c600480360381019080803590602001909291905050506111ba565b005b61057c6004803603810190808035906020019092919050505061142f565b005b61059c60048036038101908080359060200190929190505050611683565b005b3480156105aa57600080fd5b506105b3611a02565b005b6105d360048036038101908080359060200190929190505050611a45565b005b3480156105e157600080fd5b50610718600480360381019080803590602001908201803590602001908080601f016020809104026020016040519081016040528093929190818152602001838380828437820191505050505050919291929080359060200190929190803590602001908201803590602001908080601f0160208091040260200160405190810160405280939291908181526020018383808284378201915050505050509192919290803590602001908201803590602001908080601f0160208091040260200160405190810160405280939291908181526020018383808284378201915050505050509192919290803590602001908201803590602001908080601f0160208091040260200160405190810160405280939291908181526020018383808284378201915050505050509192919290505050611d0c565b6040518082815260200191505060405180910390f35b61074c600480360381019080803590602001909291905050506120a8565b6040518080602001828103825283818151815260200191508051906020019080838360005b8381101561078c578082015181840152602081019050610771565b50505050905090810190601f1680156107b95780820380516001836020036101000a031916815260200191505b509250505060405180910390f35b3480156107d357600080fd5b506107dc612424565b005b6107fc60048036038101908080359060200190929190505050612467565b005b34801561080a57600080fd5b5061082960048036038101908080359060200190929190505050612666565b005b600460009054906101000a900473ffffffffffffffffffffffffffffffffffffffff1673ffffffffffffffffffffffffffffffffffffffff163373ffffffffffffffffffffffffffffffffffffffff161415156108f0576040517f08c379a000000000000000000000000000000000000000000000000000000000815260040180806020018281038252601c8152602001807f4f6e6c792070617469656e742063616e206465706f736974206665650000000081525060200191505060405180910390fd5b600115156009600083815260200190815260200160002060009054906101000a900460ff16151514151561098c576040517f08c379a000000000000000000000000000000000000000000000000000000000815260040180806020018281038252601b8152602001807f54686973207265636f726420646f6573206e6f7420657869737473000000000081525060200191505060405180910390fd5b6802b5e3af16b188000034141515610a0c576040517f08c379a000000000000000000000000000000000000000000000000000000000815260040180806020018281038252601d8152602001807f4465706f73697420736f6d6520636f6e73756c74616e6379206665652e00000081525060200191505060405180910390fd5b34600a6000838152602001908152602001600020600001819055506001600a600083815260200190815260200160002060030160006101000a81548160ff02191690831515021790555050565b60065481565b600160009054906101000a900473ffffffffffffffffffffffffffffffffffffffff1673ffffffffffffffffffffffffffffffffffffffff163373ffffffffffffffffffffffffffffffffffffffff16141515610b24576040517f08c379a000000000000000000000000000000000000000000000000000000000815260040180806020018281038252601c8152602001807f4f6e6c7920646f63746f722063616e2061646420666565646261636b0000000081525060200191505060405180910390fd5b600115156009600084815260200190815260200160002060009054906101000a900460ff161515141515610bc0576040517f08c379a000000000000000000000000000000000000000000000000000000000815260040180806020018281038252601b8152602001807f54686973207265636f726420646f6573206e6f7420657869737473000000000081525060200191505060405180910390fd5b60011515600a600084815260200190815260200160002060030160009054906101000a900460ff161515141515610c5f576040517f08c379a000000000000000000000000000000000000000000000000000000000815260040180806020018281038252601b8152602001807f446f63746f7220646f6573206e6f74206861766520616363657373000000000081525060200191505060405180910390fd5b6802b5e3af16b1880000600a600084815260200190815260200160002060000154141515610d1b576040517f08c379a000000000000000000000000000000000000000000000000000000000815260040180806020018281038252602b8152602001807f50617469656e7420686173206e6f74206465706f73697465642073756666696381526020017f69656e7420616d6f756e7400000000000000000000000000000000000000000081525060400191505060405180910390fd5b80600860008481526020019081526020016000206005019080519060200190610d45929190612898565b505050565b6008602052806000526040600020600091509050806000018054600181600116156101000203166002900480601f016020809104026020016040519081016040528092919081815260200182805460018160011615610100020316600290048015610df65780601f10610dcb57610100808354040283529160200191610df6565b820191906000526020600020905b815481529060010190602001808311610dd957829003601f168201915b505050505090806001015490806002018054600181600116156101000203166002900480601f016020809104026020016040519081016040528092919081815260200182805460018160011615610100020316600290048015610e9a5780601f10610e6f57610100808354040283529160200191610e9a565b820191906000526020600020905b815481529060010190602001808311610e7d57829003601f168201915b505050505090806003018054600181600116156101000203166002900480601f016020809104026020016040519081016040528092919081815260200182805460018160011615610100020316600290048015610f385780601f10610f0d57610100808354040283529160200191610f38565b820191906000526020600020905b815481529060010190602001808311610f1b57829003601f168201915b505050505090806004018054600181600116156101000203166002900480601f016020809104026020016040519081016040528092919081815260200182805460018160011615610100020316600290048015610fd65780601f10610fab57610100808354040283529160200191610fd6565b820191906000526020600020905b815481529060010190602001808311610fb957829003601f168201915b505050505090806005018054600181600116156101000203166002900480601f0160208091040260200160405190810160405280929190818152602001828054600181600116156101000203166002900480156110745780601f1061104957610100808354040283529160200191611074565b820191906000526020600020905b81548152906001019060200180831161105757829003601f168201915b5050505050905086565b33600160006101000a81548173ffffffffffffffffffffffffffffffffffffffff021916908373ffffffffffffffffffffffffffffffffffffffff160217905550565b60055481565b33600360006101000a81548173ffffffffffffffffffffffffffffffffffffffff021916908373ffffffffffffffffffffffffffffffffffffffff160217905550565b60076020528060005260406000206000915090508054600181600116156101000203166002900480601f0160208091040260200160405190810160405280929190818152602001828054600181600116156101000203166002900480156111b25780601f10611187576101008083540402835291602001916111b2565b820191906000526020600020905b81548152906001019060200180831161119557829003601f168201915b505050505081565b600460009054906101000a900473ffffffffffffffffffffffffffffffffffffffff1673ffffffffffffffffffffffffffffffffffffffff163373ffffffffffffffffffffffffffffffffffffffff161415156112a5576040517f08c379a00000000000000000000000000000000000000000000000000000000081526004018080602001828103825260248152602001807f4f6e6c792070617469656e742063616e20676976652061636365737320746f2081526020017f6c6162730000000000000000000000000000000000000000000000000000000081525060400191505060405180910390fd5b600115156009600083815260200190815260200160002060009054906101000a900460ff161515141515611341576040517f08c379a000000000000000000000000000000000000000000000000000000000815260040180806020018281038252601b8152602001807f54686973207265636f726420646f6573206e6f7420657869737473000000000081525060200191505060405180910390fd5b680340aad21b3b700000600a6000838152602001908152602001600020600101541415156113fd576040517f08c379a00000000000000000000000000000000000000000000000000000000081526004018080602001828103825260278152602001807f4c616220686173206e6f74206465706f73697465642073756666696369656e7481526020017f20616d6f756e740000000000000000000000000000000000000000000000000081525060400191505060405180910390fd5b6001600a600083815260200190815260200160002060030160016101000a81548160ff02191690831515021790555050565b600115156009600083815260200190815260200160002060009054906101000a900460ff1615151415156114cb576040517f08c379a000000000000000000000000000000000000000000000000000000000815260040180806020018281038252601b8152602001807f54686973207265636f726420646f6573206e6f7420657869737473000000000081525060200191505060405180910390fd5b6802b5e3af16b1880000600a600083815260200190815260200160002060000154141515611587576040517f08c379a000000000000000000000000000000000000000000000000000000000815260040180806020018281038252602b8152602001807f50617469656e7420686173206e6f74206465706f73697465642073756666696381526020017f69656e7420616d6f756e7400000000000000000000000000000000000000000081525060400191505060405180910390fd5b600160009054906101000a900473ffffffffffffffffffffffffffffffffffffffff1673ffffffffffffffffffffffffffffffffffffffff166108fc600a6000848152602001908152602001600020600001549081150290604051600060405180830381858888f19350505050158015611605573d6000803e3d6000fd5b506000600a6000838152602001908152602001600020600001819055506000600a600083815260200190815260200160002060030160006101000a81548160ff0219169083151502179055506001600a600083815260200190815260200160002060030160026101000a81548160ff02191690831515021790555050565b6000809054906101000a900473ffffffffffffffffffffffffffffffffffffffff1673ffffffffffffffffffffffffffffffffffffffff163373ffffffffffffffffffffffffffffffffffffffff1614151561176d576040517f08c379a00000000000000000000000000000000000000000000000000000000081526004018080602001828103825260288152602001807f4f6e6c7920636f6e74726163742063616e20706572666f726d2074686973206f81526020017f7065726174696f6e00000000000000000000000000000000000000000000000081525060400191505060405180910390fd5b600115156009600083815260200190815260200160002060009054906101000a900460ff161515141515611809576040517f08c379a000000000000000000000000000000000000000000000000000000000815260040180806020018281038252601b8152602001807f54686973207265636f726420646f6573206e6f7420657869737473000000000081525060200191505060405180910390fd5b680340aad21b3b700000600a6000838152602001908152602001600020600101541415156118c5576040517f08c379a00000000000000000000000000000000000000000000000000000000081526004018080602001828103825260278152602001807f4c616220686173206e6f74206465706f73697465642073756666696369656e7481526020017f20616d6f756e740000000000000000000000000000000000000000000000000081525060400191505060405180910390fd5b60011515600a600083815260200190815260200160002060030160019054906101000a900460ff161515141515611964576040517f08c379a00000000000000000000000000000000000000000000000000000000081526004018080602001828103825260168152602001807f4c616220646964206e6f7420676574206163636573730000000000000000000081525060200191505060405180910390fd5b600460009054906101000a900473ffffffffffffffffffffffffffffffffffffffff1673ffffffffffffffffffffffffffffffffffffffff166108fc600a6000848152602001908152602001600020600101549081150290604051600060405180830381858888f193505050501580156119e2573d6000803e3d6000fd5b506000600a60008381526020019081526020016000206001018190555050565b33600460006101000a81548173ffffffffffffffffffffffffffffffffffffffff021916908373ffffffffffffffffffffffffffffffffffffffff160217905550565b6000809054906101000a900473ffffffffffffffffffffffffffffffffffffffff1673ffffffffffffffffffffffffffffffffffffffff163373ffffffffffffffffffffffffffffffffffffffff16141515611b2f576040517f08c379a00000000000000000000000000000000000000000000000000000000081526004018080602001828103825260288152602001807f4f6e6c7920636f6e74726163742063616e20706572666f726d2074686973206f81526020017f7065726174696f6e00000000000000000000000000000000000000000000000081525060400191505060405180910390fd5b600115156009600083815260200190815260200160002060009054906101000a900460ff161515141515611bcb576040517f08c379a000000000000000000000000000000000000000000000000000000000815260040180806020018281038252601b8152602001807f54686973207265636f726420646f6573206e6f7420657869737473000000000081525060200191505060405180910390fd5b60011515600a600083815260200190815260200160002060030160039054906101000a900460ff161515141515611c6a576040517f08c379a00000000000000000000000000000000000000000000000000000000081526004018080602001828103825260128152602001807f4e6f7468696e6720746f207061796261636b000000000000000000000000000081525060200191505060405180910390fd5b6000600a6000838152602001908152602001600020600201541115611d0957600460009054906101000a900473ffffffffffffffffffffffffffffffffffffffff1673ffffffffffffffffffffffffffffffffffffffff166108fc600a6000848152602001908152602001600020600201549081150290604051600060405180830381858888f19350505050158015611d07573d6000803e3d6000fd5b505b50565b6000806005549050600460009054906101000a900473ffffffffffffffffffffffffffffffffffffffff1673ffffffffffffffffffffffffffffffffffffffff163373ffffffffffffffffffffffffffffffffffffffff16141515611dd9576040517f08c379a000000000000000000000000000000000000000000000000000000000815260040180806020018281038252601f8152602001807f4f6e6c792070617469656e742063616e2061646420686973207265636f72640081525060200191505060405180910390fd5b600015156009600083815260200190815260200160002060009054906101000a900460ff161515141515611e75576040517f08c379a000000000000000000000000000000000000000000000000000000000815260040180806020018281038252601a8152602001807f54686973207265636f726420616c72656164792065786973747300000000000081525060200191505060405180910390fd5b60c0604051908101604052808881526020018781526020018681526020018581526020018481526020016020604051908101604052806000815250815250600860008381526020019081526020016000206000820151816000019080519060200190611ee2929190612918565b50602082015181600101556040820151816002019080519060200190611f09929190612918565b506060820151816003019080519060200190611f26929190612918565b506080820151816004019080519060200190611f43929190612918565b5060a0820151816005019080519060200190611f60929190612918565b5090505060016009600083815260200190815260200160002060006101000a81548160ff02191690831515021790555060e06040519081016040528060008152602001600081526020016000815260200160001515815260200160001515815260200160001515815260200160001515815250600a600083815260200190815260200160002060008201518160000155602082015181600101556040820151816002015560608201518160030160006101000a81548160ff02191690831515021790555060808201518160030160016101000a81548160ff02191690831515021790555060a08201518160030160026101000a81548160ff02191690831515021790555060c08201518160030160036101000a81548160ff02191690831515021790555090505060056000815480929190600101919050555060055491505095945050505050565b6060600360009054906101000a900473ffffffffffffffffffffffffffffffffffffffff1673ffffffffffffffffffffffffffffffffffffffff163373ffffffffffffffffffffffffffffffffffffffff1614151561216f576040517f08c379a00000000000000000000000000000000000000000000000000000000081526004018080602001828103825260188152602001807f4f6e6c7920696e73757265722063616e207061796261636b000000000000000081525060200191505060405180910390fd5b600115156009600084815260200190815260200160002060009054906101000a900460ff16151514151561220b576040517f08c379a000000000000000000000000000000000000000000000000000000000815260040180806020018281038252601b8152602001807f54686973207265636f726420646f6573206e6f7420657869737473000000000081525060200191505060405180910390fd5b60011515600a600084815260200190815260200160002060030160029054906101000a900460ff1615151415156122d0576040517f08c379a00000000000000000000000000000000000000000000000000000000081526004018080602001828103825260248152602001807f43616e6e6f74207061796261636b20776974686f7574207061796d656e74207081526020017f726f6f660000000000000000000000000000000000000000000000000000000081525060400191505060405180910390fd5b60011515600a600084815260200190815260200160002060030160039054906101000a900460ff16151514151561236f576040517f08c379a00000000000000000000000000000000000000000000000000000000081526004018080602001828103825260128152602001807f4e6f7468696e6720746f207061796261636b000000000000000000000000000081525060200191505060405180910390fd5b34600a6000848152602001908152602001600020600201819055506000600a60008481526020019081526020016000206002015411156123e6576040805190810160405280600e81526020017f436c61696d204163636570746564000000000000000000000000000000000000815250905061241f565b6040805190810160405280600e81526020017f436c61696d2052656a656374656400000000000000000000000000000000000081525090505b919050565b33600260006101000a81548173ffffffffffffffffffffffffffffffffffffffff021916908373ffffffffffffffffffffffffffffffffffffffff160217905550565b600260009054906101000a900473ffffffffffffffffffffffffffffffffffffffff1673ffffffffffffffffffffffffffffffffffffffff163373ffffffffffffffffffffffffffffffffffffffff1614151561252c576040517f08c379a000000000000000000000000000000000000000000000000000000000815260040180806020018281038252601f8152602001807f4f6e6c79206c61622063616e207265717565737420746865207265636f72640081525060200191505060405180910390fd5b600115156009600083815260200190815260200160002060009054906101000a900460ff1615151415156125c8576040517f08c379a000000000000000000000000000000000000000000000000000000000815260040180806020018281038252601b8152602001807f54686973207265636f726420646f6573206e6f7420657869737473000000000081525060200191505060405180910390fd5b680340aad21b3b70000034141515612648576040517f08c379a000000000000000000000000000000000000000000000000000000000815260040180806020018281038252601b8152602001807f4465706f73697420736f6d65206461746120757361676520666565000000000081525060200191505060405180910390fd5b34600a60008381526020019081526020016000206001018190555050565b600460009054906101000a900473ffffffffffffffffffffffffffffffffffffffff1673ffffffffffffffffffffffffffffffffffffffff163373ffffffffffffffffffffffffffffffffffffffff1614151561272b576040517f08c379a00000000000000000000000000000000000000000000000000000000081526004018080602001828103825260208152602001807f4f6e6c792070617469656e742063616e20636c61696d20696e737572616e636581525060200191505060405180910390fd5b600115156009600083815260200190815260200160002060009054906101000a900460ff1615151415156127c7576040517f08c379a000000000000000000000000000000000000000000000000000000000815260040180806020018281038252601b8152602001807f54686973207265636f726420646f6573206e6f7420657869737473000000000081525060200191505060405180910390fd5b60011515600a600083815260200190815260200160002060030160029054906101000a900460ff161515141515612866576040517f08c379a00000000000000000000000000000000000000000000000000000000081526004018080602001828103825260108152602001807f4e6f7468696e6720746f20636c61696d0000000000000000000000000000000081525060200191505060405180910390fd5b6001600a600083815260200190815260200160002060030160036101000a81548160ff02191690831515021790555050565b828054600181600116156101000203166002900490600052602060002090601f016020900481019282601f106128d957805160ff1916838001178555612907565b82800160010185558215612907579182015b828111156129065782518255916020019190600101906128eb565b5b5090506129149190612998565b5090565b828054600181600116156101000203166002900490600052602060002090601f016020900481019282601f1061295957805160ff1916838001178555612987565b82800160010185558215612987579182015b8281111561298657825182559160200191906001019061296b565b5b5090506129949190612998565b5090565b6129ba91905b808211156129b657600081600090555060010161299e565b5090565b905600a165627a7a7230582083b36c253d49e49600dc3006731ead26ac1ea4099d49476ffc37c6e2d5a645d30029",
  "source": "pragma solidity ^0.4.24;\r\n\r\ncontract Project\r\n{\r\n  address owner=0x4d680c4c465bE01D5C423Ca7E9F3Cd63Da111518;\r\n  address doctor= 0x421C4ff3cda80C55BbB4bC49540e983A2e498ABc;\r\n  address lab= 0xbA618450B704c8f0C8a9d368cfE911D6121e7748;\r\n  address insurer = 0x0B8bf3265338Bb73f8d8f8864823F05AA7aF6f29;\r\n  address patient= 0x29FA1844a7604fdC2608293a034b9aC1E48775dF;\r\n\r\n  uint constant DOCTOR_AMOUNT=50*1 ether;\r\n  uint constant LAB_AMOUNT=60*1 ether;\r\n  uint public globalRid;\r\n  uint public candidatesCount;\r\n\r\n  struct Record\r\n  {\r\n    string name;\r\n    uint age;\r\n    string weight;\r\n    string gender;\r\n    string symptoms;\r\n    string feedback;\r\n  }\r\n\r\n  struct transactionFlags\r\n  {\r\n    uint doctorFee;\r\n    uint labPays;\r\n    uint insurancePayback;\r\n    bool doctorAllowed;\r\n    bool labAllowed;\r\n    bool insuranceProof;\r\n    bool insuranceClaimed;\r\n  }\r\n\r\n  mapping (address => string) public registeredAddr;\r\n  mapping(uint => Record) public PatientRecords;\r\n  mapping(uint => bool) private PatientExists;\r\n  mapping(uint => transactionFlags) private Flags;\r\n  mapping(uint => bytes32) private RecordKeys;\r\n\r\n  constructor () public {\r\n    registeredAddr[doctor] = \"doctor\";\r\n    registeredAddr[lab] = \"lab\";\r\n    registeredAddr[insurer] = \"insurer\";\r\n    registeredAddr[owner] = \"owner\";\r\n    //addRecord(\"Sonali\", 24, \"44\", \"female\", \"mental illness\");\r\n    //addRecord(\"krupa\", 27, \"54\", \"female\", \"same mental illness\");\r\n  }\r\n\r\n  function registerAsPatient() public\r\n  {\r\n    patient = msg.sender;\r\n  }\r\n\r\n  function registerAsDoctor() public\r\n  {\r\n    doctor=msg.sender;\r\n  }\r\n\r\n  function registerAsLab() public\r\n  {\r\n    lab=msg.sender;\r\n  }\r\n\r\n  function registerAsInsurer() public\r\n  {\r\n    insurer=msg.sender;\r\n  }\r\n\r\n  //by patient\r\n  function addRecord(string name, uint age, string weight, string gender, string symptoms) public returns(uint)\r\n  {\r\n    uint rid= globalRid;\r\n    require(msg.sender == patient, \"Only patient can add his record\");\r\n    require(PatientExists[rid] == false, \"This record already exists\");\r\n    PatientRecords[rid] = Record(name, age, weight, gender, symptoms,\"\");\r\n    PatientExists[rid] = true;\r\n    Flags[rid]=transactionFlags(0,0,0,false,false,false,false);\r\n    globalRid++;\r\n    return globalRid;\r\n  }\r\n\r\n  //by patient\r\n  function sendRecordAndDepositFee(uint rid) public payable\r\n  {\r\n    require(msg.sender == patient, \"Only patient can deposit fee\");\r\n    //require(sha256(rid) == RecordKeys[rid], \"Invalid id\");\r\n    require(PatientExists[rid] == true, \"This record does not exists\");\r\n    require (msg.value==DOCTOR_AMOUNT, \"Deposit some consultancy fee.\");\r\n    Flags[rid].doctorFee=msg.value;\r\n    Flags[rid].doctorAllowed=true;\r\n  }\r\n\r\n  //by doctor\r\n  function sendFeedback(uint rid, string feedback) public\r\n  {\r\n    require(msg.sender == doctor, \"Only doctor can add feedback\");\r\n    //require(sha256(rid) == RecordKeys[rid], \"Invalid id\");\r\n    require(PatientExists[rid] == true, \"This record does not exists\");\r\n    require(Flags[rid].doctorAllowed==true,\"Doctor does not have access\");\r\n    require(Flags[rid].doctorFee==DOCTOR_AMOUNT, \"Patient has not deposited sufficient amount\");\r\n    PatientRecords[rid].feedback=feedback;\r\n    //change variable to true\r\n  }\r\n\r\n  //by lab\r\n  function requestRecordAndDepositFee(uint rid) public payable\r\n  {\r\n    require(msg.sender == lab, \"Only lab can request the record\");\r\n    //require(sha256(rid) == RecordKeys[rid], \"Invalid id\");\r\n    require(PatientExists[rid] == true, \"This record does not exists\");\r\n    require (msg.value==LAB_AMOUNT, \"Deposit some data usage fee\");\r\n    //lab money =true\r\n    Flags[rid].labPays=msg.value;\r\n  }\r\n\r\n  //by patient\r\n  function grantAccessToReport(uint rid) public\r\n  {\r\n    require(msg.sender == patient, \"Only patient can give access to labs\");\r\n    require(PatientExists[rid] == true, \"This record does not exists\");\r\n    require(Flags[rid].labPays==LAB_AMOUNT, \"Lab has not deposited sufficient amount\");\r\n    Flags[rid].labAllowed=true;\r\n    //patient.transfer(address(this).balance);\r\n  }\r\n\r\n  //by patient\r\n  function claimInsurance(uint rid) public\r\n  {\r\n    require(msg.sender == patient, \"Only patient can claim insurance\");\r\n    require(PatientExists[rid] == true, \"This record does not exists\");\r\n    require(Flags[rid].insuranceProof==true,\"Nothing to claim\");\r\n    Flags[rid].insuranceClaimed=true;\r\n  }\r\n\r\n  //by insurer\r\n  function sendInsurance(uint rid) public payable returns (string)\r\n  {\r\n    require(msg.sender == insurer, \"Only insurer can payback\");\r\n    require(PatientExists[rid] == true, \"This record does not exists\");\r\n    require(Flags[rid].insuranceProof==true,\"Cannot payback without payment proof\");\r\n    require(Flags[rid].insuranceClaimed==true,\"Nothing to payback\");\r\n    Flags[rid].insurancePayback=msg.value;\r\n    if(Flags[rid].insurancePayback>0)\r\n    {\r\n        return \"Claim Accepted\";\r\n    }\r\n    else\r\n    {\r\n        return \"Claim Rejected\";\r\n    }\r\n  }\r\n\r\n  function releaseMoneyToDoctor(uint rid) public payable\r\n  {\r\n    //require(msg.sender == owner, \"Only contract can perform this operation\");\r\n    require(PatientExists[rid] == true, \"This record does not exists\");\r\n    require(Flags[rid].doctorFee==DOCTOR_AMOUNT, \"Patient has not deposited sufficient amount\");\r\n    //require(bytes(PatientRecords[rid].feedback).length!=0, \"Doctor has not provided feedback yet\");\r\n    doctor.transfer(Flags[rid].doctorFee);\r\n    Flags[rid].doctorFee=0;\r\n    Flags[rid].doctorAllowed=false;\r\n    Flags[rid].insuranceProof=true;\r\n  }\r\n\r\n  function releaseLabMoneyToPatient(uint rid) public payable\r\n  {\r\n    require(msg.sender == owner, \"Only contract can perform this operation\");\r\n    require(PatientExists[rid] == true, \"This record does not exists\");\r\n    require(Flags[rid].labPays==LAB_AMOUNT, \"Lab has not deposited sufficient amount\");\r\n    require(Flags[rid].labAllowed==true,\"Lab did not get access\");\r\n    patient.transfer(Flags[rid].labPays);\r\n    Flags[rid].labPays=0;\r\n  }\r\n\r\n  function releaseInsuranceMoneyToPatient(uint rid) public payable\r\n  {\r\n    require(msg.sender == owner, \"Only contract can perform this operation\");\r\n    require(PatientExists[rid] == true, \"This record does not exists\");\r\n    require(Flags[rid].insuranceClaimed==true,\"Nothing to payback\");\r\n    if(Flags[rid].insurancePayback>0)\r\n    {\r\n      patient.transfer(Flags[rid].insurancePayback);\r\n    }\r\n  }\r\n}\r\n",
  "sourcePath": "C:\\Users\\krupa\\Documents\\Sem3\\BLKCHN\\Project\\newTempUnbox\\contracts\\Project.sol",
  "compiler": {
    "name": "solc",
    "version": "0.4.24+commit.e67f0147.Emscripten.clang"
  },
  "schemaVersion": "2.0.1",
  "updatedAt": "2018-12-13T04:44:23.025Z"
}